:100000000C9462000C948A000C948A000C948A0070
:100010000C948A000C948A000C948A000C948A0038
:100020000C948A000C948A000C948A000C948A0028
:100030000C948A000C948A000C948A000C948A0018
:100040000C9496020C948A000C948A000C948A00FA
:100050000C948A000C948A000C948A000C948A00F8
:100060000C948A000C948A000000000024002700F1
:100070002A0000000000250028002B0000000000DE
:1000800023002600290004040404040404040202DA
:100090000202020203030303030301020408102007
:1000A0004080010204081020010204081020000012
:1000B0000008000201000003040700000000000027
:1000C0000000640411241FBECFEFD8E0DEBFCDBF17
:1000D00011E0A0E0B1E0EEE6F9E002C005900D927B
:1000E000A431B107D9F721E0A4E1B1E001C01D922C
:1000F000A233B207E1F710E0C2E6D0E004C02197D6
:10010000FE010E94AF04C136D107C9F70E94E00288
:100110000C94B5040C940000833081F028F48130F5
:1001200099F08230A9F008958730A9F08830C9F09D
:100130008430B1F4809180008F7D03C08091800075
:100140008F7780938000089584B58F7784BD08955C
:1001500084B58F7DFBCF8091B0008F778093B00006
:1001600008958091B0008F7DF9CFCF93DF93282F32
:1001700030E0F901E255FF4F8491F901E656FF4F57
:10018000D491F901EA57FF4FC491CC23A1F081111A
:100190000E948C00EC2FF0E0EE0FFF1FE458FF4FA1
:1001A000A591B491EC91ED2381E090E009F480E019
:1001B000DF91CF91089580E090E0FACF1F93CF9325
:1001C000DF93282F30E0F901E255FF4F8491F901C8
:1001D000E656FF4FD491F901EA57FF4FC491CC2363
:1001E000A9F0162F81110E948C00EC2FF0E0EE0F89
:1001F000FF1FEE58FF4FA591B4918FB7F894EC9183
:10020000111108C0D095DE23DC938FBFDF91CF9111
:100210001F910895DE2BF8CFCF93DF93CCE2D1E08E
:1002200060E08C810E94DE0060E08D810E94DE0033
:1002300061E08C810E94DE0061E08D81DF91CF91D1
:100240000C94DE00CF93DF93CCE2D1E061E08C81AF
:100250000E94DE0061E08D810E94DE0060E08D8101
:100260000E94DE0060E08C81DF91CF910C94DE0073
:10027000CF93DF9390E0FC01E656FF4F24918A571D
:100280009F4FFC0184918823D1F090E0880F991F43
:10029000FC01E859FF4FA591B491FC01EE58FF4FC6
:1002A000C591D49161110EC09FB7F8948C91E22F43
:1002B000E0958E238C932881E223E8839FBFDF9112
:1002C000CF9108958FB7F894EC91E22BEC938FBF08
:1002D000F6CF0F931F93CF93DF93D82FC8E060E042
:1002E000809130010E94DE000D2F0D2E000C110BAD
:1002F00061E0D0FF60E0809131010E94DE00159541
:100300000795D02F61E0809130010E94DE00C1503E
:1003100031F760E0809130010E94DE0061E0809161
:1003200031010E94DE0061E0809130010E94DE0018
:1003300060E0809131010E94380183EC90E00197E8
:10034000F1F7809131010E94B5008C0181110AC042
:1003500061E0809131010E94380160E080913101BB
:100360000E94DE00C3ECD0E0CE010197F1F761E01E
:10037000809131010E9438012197F1F7C801992736
:10038000DF91CF911F910F910895CF93DF93D82FD5
:1003900080912F01811180E8C82F6F3739F0E62F47
:1003A000660FFF0BED5FFE4FC081C80F0E94220158
:1003B00084E40E9469010E940C010E9422018D2F99
:1003C000806C0E9469018C2F0E9469010E940C01BF
:1003D0000E94220180912E010E946901DF91CF913C
:1003E0000C940C013FB7F894809128019091290159
:1003F000A0912A01B0912B0126B5A89B05C02F3FE3
:1004000019F00196A11DB11D3FBFBA2FA92F982F3A
:100410008827BC01CD01620F711D811D911D42E035
:10042000660F771F881F991F4A95D1F708958F92FD
:100430009F92AF92BF92CF92DF92EF92FF926B01A9
:100440007C010E94F2014B015C01C114D104E10462
:10045000F104B9F00E94F201681979098A099B092F
:10046000683E73408105910580F321E0C21AD108EE
:10047000E108F10888EE880E83E0981EA11CB11CEB
:10048000E4CFFF90EF90DF90CF90BF90AF909F9020
:100490008F9008950F931F93CF93DF938091210145
:1004A00091E08927809321018823D9F1C09122010D
:1004B00061E086E00E94DE0081E08C0F80932201E3
:1004C0008150990BCAE0D0E0BE010E9487048B01E5
:1004D000682F83E00E94C501C801BE010E94870405
:1004E000682F82E00E94C501C0912201C23021F430
:1004F00060E087E00E94DE00C150DD0B2091010129
:100500002C171D0649F461E08EE00E94DE00109277
:10051000000181E080930201DF91CF911F910F9143
:10052000089560E086E00E94DE00DECF1F920F9209
:100530000FB60F9211242F933F938F939F93AF93F6
:10054000BF938091240190912501A0912601B09143
:1005500027013091230123E0230F2D3758F5019611
:10056000A11DB11D209323018093240190932501A7
:10057000A0932601B0932701809128019091290131
:10058000A0912A01B0912B010196A11DB11D80936C
:10059000280190932901A0932A01B0932B01BF91C8
:1005A000AF919F918F913F912F910F900FBE0F9020
:1005B0001F90189526E8230F0296A11DB11DD2CFDA
:1005C000789484B5826084BD84B5816084BD85B52E
:1005D000826085BD85B5816085BD80916E0081603A
:1005E00080936E00109281008091810082608093E0
:1005F00081008091810081608093810080918000E2
:100600008160809380008091B10084608093B1000C
:100610008091B00081608093B00080917A00846006
:1006200080937A0080917A00826080937A00809132
:100630007A00816080937A0080917A00806880934C
:100640007A001092C10060E084E00E94380160E00E
:1006500083E00E94380160E082E00E94380161E09E
:1006600087E00E94380161E086E00E94380161E085
:1006700085E00E94380161E08EE00E94380161E06F
:1006800080E10E94380161E082E10E94380161E06E
:1006900084E10E94380160E087E00E94DE0061E0B2
:1006A00086E00E94DE0061E085E00E94DE0060E0FE
:1006B0008EE00E94DE0060E080E10E94DE0060E0EB
:1006C00082E10E94DE0060E084E10E94DE006FE7CC
:1006D00080E00E94C5016FE781E00E94C5016FE7DD
:1006E00082E00E94C5016FE783E00E94C50180E4BB
:1006F00080932C0180EC80932D018BE880932E0158
:100700000AE010E080E0E82E80E0F82E80910201FF
:10071000813009F447C0823009F4BBC080910001E8
:10072000882309F4CEC080911B018823A1F10E9487
:10073000F20180901D0190901E01A0901F01B090C9
:100740002001681979098A099B0980901401909009
:100750001501A0901601B0901701681579058A055A
:100760009B05C8F0E0911901F0911A01309709F04A
:1007700009959091180181E0892780931C0190933D
:100780001B010E94F20160931D0170931E01809372
:100790001F0190932001E114F10409F4B7CF0E94E6
:1007A0000000B4CF83E00E94B5000197D1F4C0915E
:1007B000010168EC70E080E090E00E941702CF5FDA
:1007C000C13408F063C0C0930101809122018150BF
:1007D000990B20910101281719061CF481E08093E0
:1007E000220182E00E94B500019759F4C0910101F5
:1007F00068EC70E080E090E00E941702C150C09366
:1008000001018091010190E0B8010E9487045B0121
:10081000682F81E00E94C501C501B8010E948704CC
:10082000682F80E00E94C50184E00E94B500019716
:1008300041F568EC70E080E090E00E94170260E013
:1008400085E00E94DE0061E085E00E94DE0061E05C
:1008500087E00E94DE00109222011092210182E0C6
:1008600080930201C1E0C09300010E94F2016093F5
:100870001D0170931E0180931F0190932001C0936E
:100880001B0161E080E10E94DE0048CF109201016F
:100890009CCF83E00E94B500019769F468EC70E09A
:1008A00080E090E00E94170210921B0181E080938B
:1008B000020160E0E7CF82E00E94B5000197C9F72E
:1008C000EDCF10921B0167CFCF93DF93CCE2D1E045
:1008D00088E08C8389E08D8361E088E00E943801A4
:1008E00061E08D810E943801E4E1F1E080E291EA6B
:1008F000A7E0B0E080839183A283B38381E0848307
:100900008AE492E096838583DF91CF91089597FBE7
:10091000072E16F4009407D077FD09D00E949B049F
:1009200007FC05D03EF4909581959F4F08957095F2
:1009300061957F4F0895AA1BBB1B51E107C0AA1FF9
:10094000BB1FA617B70710F0A61BB70B881F991F70
:100950005A95A9F780959095BC01CD010895EE0FA9
:0E096000FF1F0590F491E02D0994F894FFCF4D
:10096E000105013F065B4F666D7D077F6F777C3912
:04097E005E7971002D
:00000001FF
