:100000000C9462000C948A000C948A000C948A0070
:100010000C948A000C948A000C948A000C948A0038
:100020000C948A000C948A000C948A000C948A0028
:100030000C948A000C948A000C948A000C948A0018
:100040000C94FE030C948A000C946E040C944804E7
:100050000C948A000C948A000C948A000C948A00F8
:100060000C948A000C948A000000000024002700F1
:100070002A0000000000250028002B0000000000DE
:1000800023002600290004040404040404040202DA
:100090000202020203030303030301020408102007
:1000A0004080010204081020010204081020000012
:1000B0000008000201000003040700000000000027
:1000C0000000A00411241FBECFEFD8E0DEBFCDBFDB
:1000D00011E0A0E0B1E0ECE1FEE002C005900D927D
:1000E000A632B107D9F721E0A6E2B1E001C01D9226
:1000F000A13EB207E1F710E0C2E6D0E004C02197CC
:10010000FE010E940607C136D107C9F70E94F2041A
:100110000C940C070C940000833081F028F481309B
:1001200099F08230A9F008958730A9F08830C9F09D
:100130008430B1F4809180008F7D03C08091800075
:100140008F7780938000089584B58F7784BD08955C
:1001500084B58F7DFBCF8091B0008F778093B00006
:1001600008958091B0008F7DF9CFCF93DF93282F32
:1001700030E0F901E255FF4F8491F901E656FF4F57
:10018000D491F901EA57FF4FC491CC23A1F081111A
:100190000E948C00EC2FF0E0EE0FFF1FE458FF4FA1
:1001A000A591B491EC91ED2381E090E009F480E019
:1001B000DF91CF91089580E090E0FACF1F93CF9325
:1001C000DF93282F30E0F901E255FF4F8491F901C8
:1001D000E656FF4FD491F901EA57FF4FC491CC2363
:1001E000A9F0162F81110E948C00EC2FF0E0EE0F89
:1001F000FF1FEE58FF4FA591B4918FB7F894EC9183
:10020000111108C0D095DE23DC938FBFDF91CF9111
:100210001F910895DE2BF8CFCF93DF93CBEDD1E084
:1002200060E08C810E94DE0060E08D810E94DE0033
:1002300061E08C810E94DE0061E08D81DF91CF91D1
:100240000C94DE00CF93DF93CBEDD1E061E08C81A5
:100250000E94DE0061E08D810E94DE0060E08D8101
:100260000E94DE0060E08C81DF91CF910C94DE0073
:10027000CF93DF9390E0FC01E656FF4F24918A571D
:100280009F4FFC0184918823D1F090E0880F991F43
:10029000FC01E859FF4FA591B491FC01EE58FF4FC6
:1002A000C591D49161110EC09FB7F8948C91E22F43
:1002B000E0958E238C932881E223E8839FBFDF9112
:1002C000CF9108958FB7F894EC91E22BEC938FBF08
:1002D000F6CF0F931F93CF93DF93D82FC8E060E042
:1002E0008091DF010E94DE000D2F0D2E000C110BFE
:1002F00061E0D0FF60E08091E0010E94DE00159592
:100300000795D02F61E08091DF010E94DE00C1508F
:1003100031F760E08091DF010E94DE0061E08091B2
:10032000E0010E94DE0061E08091DF010E94DE00BA
:1003300060E08091E0010E94380183EC90E0019739
:10034000F1F78091E0010E94B5008C0181110AC093
:1003500061E08091E0010E94380160E08091E0015D
:100360000E94DE00C3ECD0E0CE010197F1F761E01E
:100370008091E0010E9438012197F1F7C801992787
:10038000DF91CF911F910F910895CF93DF93D82FD5
:100390008091DE01811180E8C82F6F3739F0E62F98
:1003A000660FFF0BEC5FFE4FC081C80F0E94220159
:1003B00084E40E9469010E940C010E9422018D2F99
:1003C000806C0E9469018C2F0E9469010E940C01BF
:1003D0000E9422018091DD010E946901DF91CF918D
:1003E0000C940C013FB7F89480912D0190912E014F
:1003F000A0912F01B091300126B5A89B05C02F3FD9
:1004000019F00196A11DB11D3FBFBA2FA92F982F3A
:100410008827BC01CD01620F711D811D911D42E035
:10042000660F771F881F991F4A95D1F708958F92FD
:100430009F92AF92BF92CF92DF92EF92FF926B01A9
:100440007C010E94F2014B015C01C114D104E10462
:10045000F104B9F00E94F201681979098A099B092F
:10046000683E73408105910580F321E0C21AD108EE
:10047000E108F10888EE880E83E0981EA11CB11CEB
:10048000E4CFFF90EF90DF90CF90BF90AF909F9020
:100490008F900895AF92BF92CF92DF92EF92FF922A
:1004A0000F931F93CF93DF936C017B018B01040F9C
:1004B000151FEB015E01AE18BF08C017D10759F038
:1004C0006991D601ED91FC910190F081E02DC6017A
:1004D0000995892B79F7C501DF91CF911F910F9174
:1004E000FF90EF90DF90CF90BF90AF900895FC0108
:1004F000538D448D252F30E0842F90E0821B930B89
:10050000541710F0CF96089501970895FC01918D2E
:10051000828D981761F0A28DAE0FBF2FB11D5D9631
:100520008C91928D9F5F9F73928F90E008958FEFD3
:100530009FEF0895FC01918D828D981731F0828D87
:10054000E80FF11D858D90E008958FEF9FEF0895DE
:10055000FC01918D228D892F90E0805C9F4F821B42
:1005600091098F739927089581E391E00E94A80271
:1005700021E0892B09F420E0822F089580E090E0AB
:10058000892B29F00E94B40281110C940000089577
:10059000FC01A48DA80FB92FB11DA35ABF4F2C91F8
:1005A000848D90E001968F739927848FA689B789EF
:1005B0002C93A089B1898C91837080648C93938DE6
:1005C000848D981306C00288F389E02D80818F7D89
:1005D00080830895EF92FF920F931F93CF93DF9341
:1005E000EC0181E0888F9B8D8C8D98131AC0E8896F
:1005F000F989808185FF15C09FB7F894EE89FF893E
:100600006083E889F98980818370806480839FBFDB
:1006100081E090E0DF91CF911F910F91FF90EF90DB
:100620000895F62E0B8D10E00F5F1F4F0F731127EB
:10063000E02E8C8D8E110CC00FB607FCFACFE88926
:10064000F989808185FFF5CFCE010E94C802F1CFE4
:10065000EB8DEC0FFD2FF11DE35AFF4FF0829FB79A
:10066000F8940B8FEA89FB8980818062CFCFCF938A
:10067000DF93EC01888D8823B9F0AA89BB89E889CA
:10068000F9898C9185FD03C0808186FD0DC00FB670
:1006900007FCF7CF8C9185FFF2CF808185FFEDCFEE
:1006A000CE010E94C802E9CFDF91CF91089560E0AA
:1006B00085E00E94DE0061E085E00E94DE0061E0EE
:1006C00087E00E94DE0081E0809300011092270104
:1006D0001092260182E0809302010895CF92DF926A
:1006E000EF92FF920F931F93CF93DF93CDB7DEB7B7
:1006F000A1970FB6F894DEBF0FBECDBF8091260143
:1007000091E0892780932601882309F472C0109113
:10071000270161E086E00E94DE0081E0810F809386
:1007200027018150990B0AE010E0B8010E94AD0644
:100730007B01682F83E00E94C501C701B8010E94B8
:10074000AD06682F82E00E94C5011091270112308A
:1007500021F460E087E00E94DE00212F2150330B5E
:10076000C901209101012817190649F461E08EE0C2
:100770000E94DE000E94570381E0809302012091D5
:10078000030130E050E040E019A28E010F5D1F4FE1
:100790008AE0C82ED12CE12CF12CCA01B901A701A5
:1007A00096010E94C106605DF80162938F012115D8
:1007B00031054105510589F7309761F0019000201E
:1007C000E9F73197AF01401B510BB80181E391E08C
:1007D0000E944A02A1960FB6F894DEBF0FBECDBFAD
:1007E000DF91CF911F910F91FF90EF90DF90CF900D
:1007F000089560E086E00E94DE00A7CF1F920F926E
:100800000FB60F9211242F933F938F939F93AF9323
:10081000BF938091290190912A01A0912B01B09161
:100820002C013091280123E0230F2D3758F5019634
:10083000A11DB11D209328018093290190932A01C5
:10084000A0932B01B0932C0180912D0190912E014A
:10085000A0912F01B09130010196A11DB11D80938F
:100860002D0190932E01A0932F01B0933001BF91E1
:10087000AF919F918F913F912F910F900FBE0F904D
:100880001F90189526E8230F0296A11DB11DD2CF07
:100890001F920F920FB60F9211242F933F934F93F5
:1008A0005F936F937F938F939F93AF93BF93EF93D8
:1008B000FF9381E391E00E94C802FF91EF91BF9105
:1008C000AF919F918F917F916F915F914F913F91E8
:1008D0002F910F900FBE0F901F9018951F920F929F
:1008E0000FB60F9211242F938F939F93EF93FF9343
:1008F000E0914101F09142018081E0914701F09146
:10090000480182FD1BC0908180914A018F5F8F73E7
:1009100020914B01821741F0E0914A01F0E0EF5C39
:10092000FE4F958F80934A01FF91EF919F918F9198
:100930002F910F900FBE0F901F9018958081F4CFCC
:10094000CF93DF93E1E3F1E01382128288EE93E02C
:10095000A0E0B0E084839583A683B78388E191E02B
:100960009183808385EC90E09587848784EC90E088
:100970009787868780EC90E0918B808B81EC90E06C
:10098000938B828B82EC90E0958B848B86EC90E04D
:10099000978B868B118E128E138E148ECBEDD1E039
:1009A00088E08C8389E08D8361E088E00E943801D3
:1009B00061E08D810E94380120910301EEECF1E0AD
:1009C00030E0A8EEB3E00E94E30660837183828387
:1009D000938381E084838EE693E096838583DF9121
:1009E000CF910895789484B5826084BD84B5816088
:1009F00084BD85B5826085BD85B5816085BD8091EA
:100A00006E00816080936E00109281008091810061
:100A10008260809381008091810081608093810059
:100A2000809180008160809380008091B10084601B
:100A30008093B1008091B00081608093B00080917C
:100A40007A00846080937A0080917A00826080933B
:100A50007A0080917A00816080937A0080917A0098
:100A6000806880937A001092C10060E084E00E9468
:100A7000380160E083E00E94380160E082E00E947B
:100A8000380161E087E00E94380161E086E00E9461
:100A9000380161E085E00E94380161E08EE00E944B
:100AA000380161E080E10E94380161E082E10E944A
:100AB000380161E084E10E94380160E087E00E9433
:100AC000DE0061E086E00E94DE0061E085E00E94D9
:100AD000DE0060E08EE00E94DE0060E080E10E94C7
:100AE000DE0060E082E10E94DE0060E084E10E94BE
:100AF000DE006FE780E00E94C5016FE781E00E94A1
:100B0000C5016FE782E00E94C5016FE783E00E94A4
:100B1000C50180E48093DB0180EC8093DC018BE8ED
:100B20008093DD01E0914101F091420182E08083F8
:100B3000E0913D01F0913E011082E0913F01F09182
:100B400040018FEC808310924901E0914501F091C2
:100B5000460186E08083E0914301F0914401808169
:100B600080618083E0914301F0914401808188603D
:100B70008083E0914301F09144018081806880830B
:100B8000E0914301F091440180818F7D80830AE0F0
:100B900010E0D7E480E0E82E80E0F82E809102019A
:100BA000813009F45CC0823009F4BDC0809100013D
:100BB0008823C1F18091D5018823A1F10E94F2011F
:100BC0008090D7019090D801A090D901B090DA011F
:100BD000681979098A099B098090CE019090CF010C
:100BE000A090D001B090D101681579058A059B05C8
:100BF000C8F0E091D301F091D401309709F0099544
:100C00009091D20181E089278093D6019093D501FC
:100C10000E94F2016093D7017093D8018093D901AB
:100C20009093DA01D0937C0080917A008064809365
:100C30007A0080917A0086FDFCCF809178009091B7
:100C4000790080930301E114F10409F4A7CF0E9415
:100C5000B402882309F4A2CF0E9400009FCF83E052
:100C60000E94B5000197D1F4C091010168EC70E0D9
:100C700080E090E00E941702CF5FC13408F050C0BE
:100C8000C0930101809127018150990B20910101AE
:100C9000281719061CF481E08093270182E00E9446
:100CA000B500019759F4C091010168EC70E080E053
:100CB00090E00E941702C150C09301018091010190
:100CC00090E0B8010E94AD065B01682F81E00E94B0
:100CD000C501C501B8010E94AD06682F80E00E94E1
:100CE000C50184E00E94B5000197A9F468EC70E0AA
:100CF00080E090E00E9417020E9457030E94F201D8
:100D00006093D7017093D8018093D9019093DA0151
:100D100081E08093D50161E080E10E94DE0046CF52
:100D200010920101AFCF83E00E94B500019779F4E2
:100D300068EC70E080E090E00E94170210920001E1
:100D40001092D50181E08093020160E0E5CF82E05E
:100D50000E94B5000197C9F7EBCF97FB072E16F459
:100D6000009407D077FD09D00E94F20607FC05D059
:100D70003EF4909581959F4F0895709561957F4FB2
:100D80000895A1E21A2EAA1BBB1BFD010DC0AA1FCC
:100D9000BB1FEE1FFF1FA217B307E407F50720F0E4
:100DA000A21BB30BE40BF50B661F771F881F991F5F
:100DB0001A9469F760957095809590959B01AC01A8
:100DC000BD01CF010895A29FB001B39FC001A39FB1
:100DD000700D811D1124911DB29F700D811D112474
:100DE000911D0895AA1BBB1B51E107C0AA1FBB1F81
:100DF000A617B70710F0A61BB70B881F991F5A95A7
:100E0000A9F780959095BC01CD010895EE0FFF1FC5
:0C0E10000590F491E02D0994F894FFCFB8
:100E1C00010501F43F065B4F666D7D077F6F777CA4
:100E2C00395E797100000000EA024A02770237034A
:060E3C00A80286029A02E2
:00000001FF
